:020000040800F2
:10000000D00800209D010008211300088F0C000873
:100010001D1300080F0900085D29000800000000FA
:100020000000000000000000000000004D1E00085D
:100030004909000800000000011D000831210008E6
:10004000B7010008B7010008B7010008B7010008B0
:10005000B7010008B7010008B7010008B7010008A0
:10006000B7010008B7010008B7010008B701000890
:10007000B7010008B7010008B7010008B701000880
:10008000B7010008B7010008B7010008B701000870
:10009000B7010008B7010008B70100086D0A0008A1
:1000A000B7010008B7010008B7010008B701000850
:1000B000B7010008B7010008AD210008B70100082A
:1000C000B7010008B7010008B7010008B701000830
:1000D000B7010008B7010008B7010008B701000820
:1000E000B7010008B7010008B7010008B701000810
:1000F000B7010008B7010008B7010008B701000800
:10010000B7010008B7010008B7010008B7010008EF
:10011000B7010008B701000869220008B70100080C
:10012000B7010008B7010008B7010008B7010008CF
:10013000B7010008B7010008B7010008B7010008BF
:10014000B7010008B7010008B7010008B7010008AF
:10015000B7010008B7010008B7010008B70100089F
:10016000B7010008B7010008B7010008B70100088F
:10017000B7010008B7010008B7010008B70100087F
:10018000B7010008B7010008DFF80CD000F04CFB05
:1001900000480047FD520008D0080020064880476C
:1001A00006480047FEE7FEE7FEE7FEE7FEE7FEE75C
:1001B000FEE7FEE7FEE7FEE73521000889010008BB
:1001C0002DE9F0410024061B254671F1000605DAF1
:1001D00001240027D0EB070067EB0101161E73F125
:1001E000000605DA0027D2EB0702012567EB0303BF
:1001F00000F003FA86460E4617469C46AC4204D0F1
:100200000025D0EB050E65EB010624B10020D2EBF2
:10021000000760EB030C704631463A466346BDE882
:10022000F081D2B201E000F8012B491EFBD27047E9
:100230000022F6E710B513460A4604461946FFF7B2
:10024000F0FF204610BD30B504460020034600E014
:100250005B1C934203D2E05CCD5C401BF8D030BD08
:100260002DE9FE4F804681EA0300C00F0C46009046
:1002700021F0004123F00045B8EB0200A94105D26E
:100280004046214690461C460B46024623F000405D
:10029000104347D0270DC7F30A00C3F30A51029059
:1002A000401A019040286BDAC3F3130040F4801B1E
:1002B0000098924620B10023D2EB030A63EB0B0BAC
:1002C00001985946C0F14002504600F0C7F9064671
:1002D0000D4650465946019A00F0CFF910EB080040
:1002E0006141002487EA115284EAE7731A4340D03F
:1002F000009A62B3019A012A4FEA075215DC001BEB
:1003000061EB02014FF0004202EA0752CDE90042E0
:10031000001C41F5801132462B4600F006FA03B06E
:10032000BDE8F08F40462146F9E7001B61EB020172
:10033000001C41F5801300185B412018A2F500173E
:1003400047EB030140EAD570B6196D4111E06D0825
:100350004FEA360645EAC0754FEA0752001B61EBCB
:100360000201001C41F5801149084FEA30000019D4
:10037000514132462B4603B0BDE8F04F00F0C6B9FC
:100380000098012240000023D0EB020263EBE073EF
:10039000009821464FEAE074B8EB000061EB0401DD
:1003A000E9E783F000435BE781F0004158E72DE97E
:1003B000FE4F81EA030404F0004421F00041009460
:1003C0004FF0000B23F0004350EA01045ED052EAE4
:1003D00003045BD0C3F30A54C1F30A552C44A4F2BE
:1003E000F3340194A0FB0254C1F3130141F48011D2
:1003F000C3F3130343F4801301FB024400FB034ED9
:10040000840A970A44EA815447EA8357A4FB0768A1
:1004100002958D0A05FB07854FEA932C04FB0C54CB
:100420002705029D4FEA065847EA1637B5EB08053F
:100430006EEB070C870E920E47EA811742EA831291
:10044000A7FB0201B6EB0B0164EB00042B0D43EAA2
:100450000C335E1844EB1C50DA465146E7FB0201B0
:10046000C5F313044FEA0B3343EA14534FEA043243
:10047000019C43EA0603A4F10C040294009CCDE91C
:1004800000B400F052F903B0BDE8F08F002001463F
:10049000F9E72DE9F04D81EA030404F0004B21F067
:1004A000004514464FF0000A23F0004150EA0502CF
:1004B00020D054EA01021DD0C5F30A570246C5F305
:1004C0001303C1F31300C1F30A5640F4801543F43B
:1004D0008013A7EB0608101BD64608F2FD3873EB15
:1004E000050002D308F1010801E092185B41B8F160
:1004F000000F03DA00200146BDE8F08D00204FF424
:100500008011064684460EE0171B73EB050705D3E2
:10051000121B63EB050306434CEA010C49084FEA42
:10052000300092185B4150EA0107EDD152EA030016
:1005300012D082EA040083EA0501084305D0101BAB
:10054000AB4106D20122002306E000224FF0004317
:1005500002E06FF0010253101AEB06004CEB085159
:1005600010EB0A0041EB0B01BDE8F04D00F0CEB8F6
:1005700000F0004230F000400AD0C10D01F560717A
:10058000C0F3160042EA0151C20840071143704708
:1005900000200146704701F0004330B421F00041D3
:1005A00050EA010206D00A0DA2F56072C1F31301F0
:1005B000002A02DC30BC00207047440F44EAC1042A
:1005C000C100E01830BC00EBC25000F068B830B594
:1005D0000B46014600202022012409E021FA02F501
:1005E0009D4205D303FA02F5491B04FA02F528449B
:1005F000151EA2F10102F1DC30BD2DE9F05F0546C8
:10060000002092469B4688460646814640241BE0D1
:10061000284641464746224600F018F953465A46B6
:10062000C01A914110D311461846224600F016F820
:100630002D1A67EB01084F4622460120002100F0E9
:100640000DF817EB00094E41201EA4F10104DFDC78
:10065000484631462A464346BDE8F09F202A04DB3F
:10066000203A00FA02F1002070479140C2F12003C5
:1006700020FA03F3194390407047202A06DBCB177A
:10068000203A41FA02F043EAE07306E041FA02F34D
:10069000D040C2F12002914008431946704700291A
:1006A000A8BF7047401C490008BF20F001007047F8
:1006B00010B4B0FA80FC00FA0CF050EA010404BF58
:1006C00010BC704749B1CCF1200421FA04F411FAAE
:1006D0000CF118BF012121430843A3EB0C01CB1DF2
:1006E0004FEA00614FEA102042BF002010BC704763
:1006F00000EBC35010440029A4BF10BC7047401C3D
:10070000490008BF20F0010010BC704710B5141E4E
:1007100073F1000408DA401C41F1000192185B41BA
:100720001A4301D120F0010010BD2DE9F04D924691
:100730009B4611B1B1FA81F202E0B0FA80F22032A8
:100740009046FFF78BFF04460F4640EA0A0041EA55
:100750000B0153465A46084313D0114653EA010091
:1007600019D0C8F14002504600F070F805460E4618
:10077000504659464246FFF771FF084305D0012015
:1007800004E020463946BDE8F08D0020054346EAE6
:10079000E0762C4337430A986305E40AA0EB08008F
:1007A0000022FD0A44EA47540A3002D500200146DF
:1007B000E9E7010510196941DDE9084500196941BA
:1007C000BDE8F04DA2E7C1F30A52C1F3130140F2B4
:1007D000FF3341F480119A4202DA0020014670474B
:1007E00040F233439A42A2F2334202DC524200F01A
:1007F0002DB8FFF733BF000030B5041E71F10004BF
:1008000004DB4FF00044404264EB0101141E73F11D
:10081000000405DB1C464FF00043524263EB040327
:10082000994208BF904230BD064C074D06E0E06893
:1008300040F0010394E8070098471034AC42F6D327
:10084000FFF7A6FCA8940008C8940008202A04DB3F
:10085000203A21FA02F00021704721FA02F3D04039
:10086000C2F1200291400843194670472DE9F04D2E
:1008700000231A461B1A8A4103DB00200146BDE80B
:10088000F08DC1F30A52C1F3130141F480154FF00A
:10089000000BD10702D100186D41521E00270446FB
:1008A00040F2FF11384601EB620A3E46804602469E
:1008B00000204FF48011FFF7C9FFC2197141BB1826
:1008C00046EB0100B4EB030C75EB000C04D3E41A07
:1008D00065EB000517460E46241908F101006D412D
:1008E00080463428E3DDF91946EB0600091BA841D0
:1008F00003D24FF0FF32134601E0002213461BEBF8
:10090000070046EB0A51BDE8F04DFFF7FFBE00BF00
:10091000FEE770B502460B464FF6FF70002110E06F
:10092000565C7040002408E000F00105401015B14D
:100930004AF201067040661CF4B2082CF4DB4E1C2F
:10094000F1B29942ECDB70BD7047000000B587B092
:100950000121084601F0D6F90121102001F0F2F939
:1009600000208DF81A0001208DF81B0002208DF860
:1009700019008DF818000002059005A9384800F00C
:1009800017F902208DF818004002059005A9344897
:1009900000F00EF907220A21314800F051F9072230
:1009A00009212F4800F04CF94FF4E130019000206C
:1009B000ADF80800ADF80A00ADF80C00ADF8100075
:1009C0000C20ADF80E0001A9264801F059FF0122C4
:1009D00040F22551234801F02DFF0121214801F06B
:1009E00010FF0121084601F08DF90121480401F0B2
:1009F00099F900208DF81A0001208DF81B000220C3
:100A00008DF819008DF818000420059005A91448E8
:100A100000F0CEF802208DF818000820059005A9F6
:100A20000F4800F0C5F8072202210D4800F008F930
:100A3000072203210A4800F003F901A90A4801F03E
:100A40001FFF00F06EFC012240F22551064801F024
:100A5000F1FE0121044801F0D4FE07B000BD000002
:100A600000000240001001400044004010B520206A
:100A700000F01CF850B10648006838B9202000F09A
:100A80000FF8044A0449054804F0C8FC10BD0000F2
:100A9000148240420C0000200800002004000020C6
:100AA0000149086070470000143C014001460020E5
:100AB000034A12680A400AB1012000E00020704792
:100AC000143C0140002123498279002A3AD00A4689
:100AD000126803689A430B461A600A1D126803687D
:100AE0009A430B1D1A60027911440A6803681A437D
:100AF0000A60184A0832126803689A43154B083393
:100B00001A601A1D126803689A43124B0C331A605C
:100B10004279102A0ED11A1F126803681A430D4B2E
:100B200008331A601A1D126803681A43094B0C3304
:100B30001A600DE00749427911440A6803681A43B4
:100B40000A6005E0027911440A6803689A430A6062
:100B500070470000003C01401FB50121022001F058
:100B6000D1F80121880301F0EDF800F0EDFB202021
:100B7000029000208DF80C0001208DF80F0002A9D2
:100B80000A4800F015F80521012001F061F9202044
:100B9000009000208DF804000C208DF80500012045
:100BA0008DF806006846FFF78DFF1FBD0004024068
:100BB000F0B50A4600210023002400BF3DE00125D6
:100BC00005FA01F3156805EA03049C4234D105686F
:100BD0004F000326BE40B543056015794E00B54071
:100BE0000668354305601579012D02D01579022D6F
:100BF00016D185684F000326BE40B5438560557900
:100C00004E00B540866835438560456801268E40B4
:100C1000B5434560456896798E40B6B23543456028
:100C2000C5684F000326BE40B543C560D5794E0068
:100C3000B540C6683543C560491C1029BFD3F0BD17
:100C4000F0B5002300244D07ED0E02FA05F3CE1097
:100C500000F1200555F826504E07F70E0F26BE402E
:100C6000B543CF1000F1200646F82750CE1000F112
:100C7000200555F8265045EA0304CE1000F1200562
:100C800045F82640F0BD418370470183704700BF9F
:100C9000FEE7000010B54FF400610C48FFF7F5FFC8
:100CA0004FF480610948FFF7F0FF00F09DF94FF421
:100CB00000610648FFF7E7FF00F096F94FF4806106
:100CC0000248FFF7E0FF00F08FF910BD000402407A
:100CD00010B54FF400610848FFF7D5FF4FF480616D
:100CE0000548FFF7D2FF00F07FF94FF4006102489A
:100CF000FFF7CBFF10BD00000004024010B54FF419
:100D000000610A48FFF7C1FF00F06EF94FF48061FF
:100D10000648FFF7BAFF00F067F94FF48061034817
:100D2000FFF7B1FF00F060F910BD000000040240C1
:100D300010B500200F4908600F48006820F44020DB
:100D40000D4908600846006840F4802008600020D3
:100D50000A49C1F8A402022003F04AF8012005491B
:100D60000860022003F044F800200449C1F8A00202
:100D700010BD0000A08240420004024000804042BA
:100D80001CB50121022000F0BDFF4FF4407000901F
:100D900001208DF8040000208DF8060003208DF856
:100DA000050001208DF8070069460548FFF700FFA0
:100DB0000120044908600449C1F8A4021CBD0000D8
:100DC00000040240A08240420080404210B5002052
:100DD0000F4908600F48006820F440200D49086062
:100DE0000846006840F48020086001200A49C1F8E4
:100DF000A402022002F0FCFF012005490860022045
:100E000002F0F6FF00200449C1F8A00210BD000066
:100E1000A0824042000402400080404270B5054676
:100E200000241648006820F4402014490860084651
:100E300000680860002616E00020114908600220C2
:100E400002F0D6FF01200F49C1F8A0026006040E8F
:100E50000B487C38006808B1601CC4B2012002F065
:100E6000C7FF701CC6B2082EE6DB15B9FFF7AEFF50
:100E700001E0FFF75DFF204670BD00000004024066
:100E8000A08240420080404270B504461548006888
:100E900020F44020134908600846006840F4802090
:100EA0000860002010490860002517E0E0090E499D
:100EB000091D08606006040E022002F099FF01205F
:100EC0000A49C1F8A002022002F092FF0020064960
:100ED0000860022002F08CFF681CC5B2082DE5DB1B
:100EE00070BD000000040240A082404200804042E9
:100EF00010B50F48006820F440200D4908600846EE
:100F0000006840F48020086001200A4908600A490E
:100F1000C1F8A002042002F06BFF00200549086020
:100F2000042002F065FF00200349C1F8A00210BDB3
:100F300000040240A48240420080404210B50F48A5
:100F4000006820F440200D4908600846006840F41D
:100F50008020086000200A4908600A49C1F8A402FC
:100F6000042002F045FF0120054908600549C1F849
:100F7000A402042002F03CFF10BD00000004024067
:100F8000A08240420080404210B50024134800680F
:100F900020F44020114908600846006808600120DC
:100FA0000F49086002F024FF01200E49C1F8A00299
:100FB00002F01EFF07E0601CC4B2FA2C03DDFFF74D
:100FC000BDFF012010BD0648803800680028F2D11E
:100FD0000349091F086000BFF4E700000004024055
:100FE000A4824042008040420A2000BF011EA0F1BE
:100FF0000102D0B2FAD170471CB50121082000F0DF
:1010000081FE5020009001208DF8040000208DF812
:10101000060002208DF805008DF807006946244877
:10102000FFF7C6FD0121102000F06CFE4FF42050A8
:10103000009001208DF8040000208DF806000220A9
:101040008DF805008DF8070069461A48FFF7B0FDD6
:101050000121102000F056FE1420009001208DF890
:10106000040000208DF8060002208DF805008DF8A0
:10107000070069460F48FFF79BFD0121084600F075
:1010800041FEA020009001208DF8040000208DF882
:10109000060002208DF805008DF807006946064815
:1010A000FFF786FD40F634010148FFF7ECFD1CBD5B
:1010B000000C0240001002400000024010B5FFF793
:1010C0005FFE80216B2000F0D7F8642002F074FEF0
:1010D00000216B2000F0D0F8032000F08BF80020F6
:1010E00000F080F8322000F0AAF80121382000F04A
:1010F000C3F800216A2000F0BFF80121232000F08E
:10110000BBF88021372000F0B7F8752000F013F805
:101110000446682C0BD101216B2000F0ADF80021B2
:101120006C2000F0A9F8322000F089F801E00120DD
:1011300010BD0020FCE770B50446FFF7D9FED020B3
:10114000FFF7A2FEFFF720FF2046FFF79DFEFFF707
:101150001BFFFFF7CDFED120FFF796FEFFF714FF30
:101160000020FFF75BFE0546FFF7E8FE284670BD4E
:101170002DE9F04106460F4614461D46FFF7B8FE1E
:10118000002141EA4601C8B2FFF77EFEFFF7FCFEF0
:1011900020B1FFF7D3FE0120BDE8F0813846FFF70C
:1011A00073FEFFF7F1FEFFF7A3FE012101EB4601FD
:1011B000C8B2FFF769FEFFF7E7FE0DE0012C04D18E
:1011C0000020FFF72BFE287003E00120FFF726FE2A
:1011D0002870601EC4B26D1C002CEFD1FFF7AEFE6C
:1011E0000020D9E710B50446E006010E1C2000F0EF
:1011F00043F810BD10B50446E006010E1B2000F0B8
:101200003BF810BD70B504460025BC2C01DB012560
:1012100010E0622C01DB02250CE02A2C01DB032507
:1012200008E0142C01DB042504E00A2C01DB052571
:1012300000E0062529461A2000F01EF870BD70B5A2
:101240000446B4F57A7F01DD4FF47A74042C00DA99
:1012500004244FF47A7090FBF4F0401EC5B2294686
:10126000192000F009F80546264604EBD671C1F3B3
:101270004F00FFF7C7FF70BD70B505460C46FFF77E
:1012800037FED020FFF700FEFFF77EFE18B1FFF714
:1012900055FE012070BD2846FFF7F6FDFFF774FEEE
:1012A0002046FFF7F1FDFFF76FFE18B1FFF746FE8E
:1012B0000120EFE7FFF742FE0020EBE72DE9F041C8
:1012C00005460E4617469846FFF712FE002141EAF2
:1012D0004501C8B2FFF7D8FDFFF756FE20B1FFF772
:1012E0002DFE0120BDE8F0813046FFF7CDFDFFF770
:1012F0004BFE00240CE018F80400FFF7C5FDFFF7D3
:1013000043FE18B1FFF71AFE0120EBE7601CC4B2E0
:10131000BC42F0DBFFF712FE0020E3E700BFFEE770
:10132000704708B54FF4A06000F05EF826208DF8F5
:10133000000001208DF801008DF802008DF80300F7
:10134000684600F015F808BD08B54FF4806000F05D
:101350004BF817208DF8000001208DF801008DF862
:1013600002008DF80300684600F002F808BD000096
:1013700070B5002100230F22C4781CB3174C2468D9
:1013800004F4E064C4F5E064C4F30721C1F104048B
:10139000E3B20A4144789C40E1B28478144021438E
:1013A0000C07210E0E4C05786155047804F01F05DA
:1013B0000124AC4005786D11AD0005F1E025C5F8BC
:1013C000004109E0047804F01F050124AC40054DFC
:1013D0000678761145F8264070BD00000CED00E05F
:1013E00000E400E080E100E002490143024A1160AC
:1013F000704700000000FA050CED00E070B5002415
:101400000CE0002506E00020074901EBC501085566
:10141000681CC5B2842DF6DB601CC4B2082CF0DB5E
:1014200000F000F970BD0000B4000020F0B51446D3
:101430000B46CF1701EB5777C7F3C702CF1701EB66
:101440005777FF10A1EBC707FEB20123B340DDB20F
:101450004CB1134B03EBC0039B5C2B43104F07EBCA
:10146000C007BB541AE00E4B03EBC0039B5CDB438D
:101470000B4F07EBC007BB54094B03EBC0039B5C4E
:101480002B43074F07EBC007BB54054B03EBC003CF
:101490009B5CDB43024F07EBC007BB54F0BD000071
:1014A000B40000201CB50121062000F02BFC4FF4F5
:1014B0000060009001208DF804008DF806000320E4
:1014C0008DF8050001208DF8070069464D48FFF7AB
:1014D0006FFB0120009000208DF8060069464A4805
:1014E000FFF766FB4FF48060009001208DF8040048
:1014F0008DF8060003208DF8050001208DF8070007
:1015000069464048FFF754FB01213F48FFF7BBFB0A
:10151000C82002F051FC01213B48FFF7B6FB002137
:10152000AE2000F0E6F90021084600F0E2F90021C3
:10153000102000F0DEF90021402000F0DAF900214F
:10154000812000F0D6F90021CF2000F0D2F900214F
:10155000A12000F0CEF90021C82000F0CAF9002136
:10156000A62000F0C6F90021A82000F0C2F9002151
:101570003F2000F0BEF90021D32000F0BAF900218D
:10158000084600F0B6F90021D52000F0B2F900219C
:10159000802000F0AEF90021D92000F0AAF9002146
:1015A000F12000F0A6F90021DA2000F0A2F90021D4
:1015B000122000F09EF90021DB2000F09AF90021B2
:1015C000402000F096F90021202000F092F900213F
:1015D000022000F08EF900218D2000F08AF9002110
:1015E000142000F086F90021A42000F082F90021E7
:1015F000A62000F07EF9FFF701FF0021AF2000F0E8
:1016000078F91CBD000402400008024010B50246F3
:10161000012000E050430B1EA1F10104E1B2F9D119
:1016200010BD000070B500242BE004F1B001C8B279
:10163000002100F05EF90021022000F05AF900219B
:10164000102000F056F9FFF725FB782000F0BCFCD5
:10165000FFF754FB402000F0B7FCFFF74FFB0025DD
:1016600009E0094901EBC501085D00F0ADFCFFF799
:1016700045FB681CC5B2802DF3DBFFF729FB601C1E
:10168000C4B2082CD1DB70BDB40000202DE9FE4FA0
:101690000746884692461C460197CDF80080082CE4
:1016A00002D14FF006091FE02046E31704EB537305
:1016B000DB1021464FEAE47C04EB5C7C4FEAEC0C47
:1016C000A4EBCC0CBCF1000F02D04FF0010C01E0F8
:1016D0004FF0000C6344224604EBD27C4FEA6C0CC2
:1016E00003FB0CF303F0FF09AAF12000C6B20025AA
:1016F0005EE0082C07D106EB46002F4901EB4000C5
:1017000010F805B01DE00C2C07D106EB46002B4964
:1017100001EB800010F805B013E0102C05D128482B
:1017200000EB061010F805B00BE0182C07D106EB03
:10173000C600244901EB800010F805B001E0BDE8C7
:10174000FE8F002002901CE00BF0010028B1414602
:1017500038460C9AFFF76AFE09E00C9808B9012098
:1017600000E00020024641463846FFF75FFE4FEAA0
:101770006B0B08F1010000F0FF080298401CC0B29A
:10178000029002980828DFDB781CC7B2082C0BD027
:1017900004EBD4714A100199791A8A4204D1019F4D
:1017A00000980830C0B20090DDF80080681CC5B217
:1017B0004D459EDB00BFC2E70A690008326B000896
:1017C000A66F000896750008F0B52DED048B83B068
:1017D00006460F46B0EE408A14461D460CA000682F
:1017E000029018EE100AFEF7C3FE41EC190B53EC01
:1017F000192B08A102A801F0D3F8234602AA394602
:101800003046009500F050F803B0BDEC048BF0BDFD
:1018100020000000252E3266000000002DE9FF4F59
:1018200082B0064691461F46DDE90F4A4FF0000B95
:10183000082C01D14FF0020B002530E0781B401E30
:10184000C1B20A20FFF7E2FEB9FBF0F00A21B0FBBB
:10185000F1F201FB1208B8F1000F0ED104EBD471C4
:101860000BEB610101FB0561C8B223463022CDE9D3
:1018700000A40399FFF70AFF0FE004EBD4710BEB10
:10188000610101FB0561C8B208F13001CAB223460B
:10189000CDE900A40399FFF7F9FE681CC5B2BD426B
:1018A000CCDB06B0BDE8F08F2DE9F84106460F46C7
:1018B00014461D46DDF81C8013E0CDF80080227828
:1018C0002B4639463046FFF7E1FE082D02D1B01D08
:1018D000C6B205E0284605EBD07106EB6101CEB239
:1018E000641C2078202802DB20787E28E5DDBDE816
:1018F000F88170B505460C46FFF7CCF9782000F06A
:1019000063FBFFF7FBF91CB1402000F05DFB02E038
:10191000002000F059FBFFF7F1F9284600F054FBD6
:10192000FFF7ECF9FFF7D4F970BD0000014601485C
:10193000405C7047C4040020002004E00021034AFA
:101940001154411CC8B20928F8DB7047C4040020B8
:1019500038B504460120009000201E49487001203F
:1019600000902EE0BDF80000204018B101201A4977
:10197000086002E00020184908600120164908317B
:101980000860052002F034FA00201449C1F8BC02B6
:10199000052002F02DFA01201049C1F8BC020846CA
:1019A000D0F8300230B10B484078BDF80010084341
:1019B00008494870BDF800004FF6FF7101EA400089
:1019C0000090BDF80000FF28CCDD102002F010FAD6
:1019D00038BD0000C4040020B48240420080404270
:1019E00010B5FFF7A9FF00F0B1F80F48C0780E4915
:1019F000097940EA01200D49088000240FE00C48D5
:101A000010F81400401E012101FA00F0074909886E
:101A1000084010B9601CC0B210BD601CC4B2102CCC
:101A2000EDDB0020F8E70000C40400208600002061
:101A30008A00002010B5002013490860102002F031
:101A4000D7F90120FFF784FF4320FFF781FF002033
:101A5000FFF77EFF0120FFF77BFF0020FFF778FFF5
:101A60000020FFF775FF0020FFF772FF0020FFF74F
:101A70006FFF0020FFF76CFF01200449C1F8B80296
:101A8000102002F0B5F910BDB882404200804042FB
:101A900010B5002013490860102002F0A9F90120B8
:101AA000FFF756FF4320FFF753FF0020FFF750FFDB
:101AB0000020FFF74DFF5A20FFF74AFF5A20FFF79B
:101AC00047FF5A20FFF744FF5A20FFF741FF5A20F3
:101AD000FFF73EFF01200449C1F8B802102002F0D0
:101AE00087F910BDB8824042008040421CB50121F8
:101AF000022000F007F94FF46040009001208DF8BB
:101B0000040000208DF8060003208DF80500012058
:101B10008DF8070069460C48FFF74AF84FF460411A
:101B20000948FFF7B2F84FF48050009000208DF87C
:101B3000040003208DF8050001208DF80700694698
:101B40000148FFF735F81CBD000402401CB5002019
:101B5000019001200090002025490860254908785F
:101B6000FFF7F6FE23494878FFF7F2FE02200190C6
:101B700036E00120009027E001201D49091D086082
:101B8000052002F035F900201B49C1F8BC020520F0
:101B900002F02EF901201849C1F8BC020846D0F81D
:101BA000300250B115489DF80410405CBDF800109B
:101BB000084312499DF804208854BDF800004FF6F0
:101BC000FF7101EA40000090BDF80000FF28D3DD5E
:101BD000102002F00DF99DF80400401CC0B20190E5
:101BE0009DF804000928C4DB0120014908601CBDE0
:101BF000B88240428800002000804042C404002097
:101C000010B50720FFF792FE0A4908600820FFF789
:101C10008DFE094908600520FFF788FE0749086026
:101C20000620FFF783FE06490860FFF7D9FE054945
:101C3000086010BD200000202400002028000020A3
:101C40002C0000203000002010B500F00BF800F050
:101C500009F800F007F8FFF7EDFE00F025F8FFF7B0
:101C600017FF10BD10B500200D490860102002F0CC
:101C7000BFF80120FFF76CFE4220FFF769FE00204D
:101C8000FFF766FE0020FFF763FE0020FFF760FE0F
:101C900001200449C1F8B802102002F0A9F810BDD3
:101CA000B88240420080404210B5002012490860CE
:101CB0000120FFF74DFE4420FFF74AFE0020FFF70A
:101CC00047FE0120FFF744FE0320FFF741FE0020FE
:101CD000FFF73EFE0020FFF73BFE0020FFF738FE37
:101CE0000020FFF735FE01200449C1F8B80210209A
:101CF00002F07EF810BD0000B882404200804042F1
:101D00007047000029B1064A12680243044B1A606A
:101D100004E0034A12688243014B1A6070470000D6
:101D20003038024029B1064A12680243044B1A6057
:101D300004E0034A12688243014B1A6070470000B6
:101D40004038024029B1064A12680243044B1A6027
:101D500004E0034A12688243014B1A607047000096
:101D600044380240F0B5002100220024022500265C
:101D70000223324F3F6807F00C0121B1042905D03E
:101D8000082937D105E02E4F076036E02D4F076058
:101D900033E02A4F3F1F3F68C7F38056274F3F1F4E
:101DA0003F6807F03F036EB1264FB7FBF3F7DFF84C
:101DB0008CC0ACF1040CDCF800C0CCF3881C07FB31
:101DC0000CF40CE01E4FB7FBF3F7DFF870C0ACF17A
:101DD000040CDCF800C0CCF3881C07FB0CF4174F94
:101DE0003F1F3F68C7F301477F1C7D00B4FBF5F739
:101DF000076002E0124F076000BF00BF0F4F3F684F
:101E000007F0F0010909104F7A5C0768D740476076
:101E10000A4F3F6807F4E051890A0B4F7A5C476824
:101E2000D7408760054F3F6807F46041490B064F74
:101E30007A5C4768D740C760F0BD000008380240B0
:101E40000024F40000127A003C00002070470000DB
:101E500030B500228B071C0F0F2303FA04F20B4B43
:101E60008C1053F824309343084C8D1044F82530DF
:101E700023468C1053F824308C07240F00FA04F406
:101E80002343024C8D1044F8253030BD0838014002
:101E9000F0B52DED048B83B0B0EE409AB0EE608AC1
:101EA000F0EE418A04460D4617461E4601201023D7
:101EB0003DA2002100900846FFF7F6FC0123102206
:101EC000B0EE490A00210F20FFF77EFC012010230D
:101ED00036A20F2100900020FFF7E6FC012310221C
:101EE000B0EE480A0F210846FFF76EFC01201023D0
:101EF0002FA21E2100900020FFF7D6FC0123102204
:101F0000B0EE680A1E210F20FFF75EFC01201023AF
:101F100028A2002100904620FFF7C6FC01201021D6
:101F200003232246CDE9001000216420FFF776FC50
:101F30000120102320A22D2100900020FFF7B4FCE7
:101F40000120102102233246CDE900102D211E2050
:101F5000FFF764FC0120102319A20F2100904620F6
:101F6000FFF7A2FC0120102103232A46CDE900102F
:101F70000F216420FFF752FC0120102311A21E2123
:101F800000904620FFF790FC0120102103233A46E1
:101F9000CDE900101E216420FFF740FCFFF742FB53
:101FA00003B0BDEC048BF0BD5000000052000000F7
:101FB000590000004C583A004B45593A00000000C7
:101FC00052583A0052593A0070B5044600251FE0B5
:101FD00004F0800028B14FF400610F48FEF755FE71
:101FE00004E04FF400610C48FEF74DFEFEF7FCFFE5
:101FF0004FF480610848FEF748FEFEF7F5FF4FF406
:1020000080610548FEF73FFE6006040E681CC5B2FD
:10201000082DDDDB70BD0000000402400CB500207F
:10202000019000903448006840F4803032490860E4
:1020300000BF3148006800F4003000900198401C57
:102040000190009818B90198B0F5A04FF1D12A4835
:10205000006800F4003010B10120009001E0002081
:1020600000900098012846D123484030006840F095
:1020700080502149403108602048006840F44040C9
:102080001E4908601C48083000681B490831086078
:102090000846006840F4004008600846006840F4C4
:1020A000A05008601648091F0860081F006840F02B
:1020B0008070091F086000BF0F48006800F00070C2
:1020C0000028F9D040F205700E4908600A4808302F
:1020D000006820F0030008490831086008460068DD
:1020E00040F00200086000BF03480830006800F0BC
:1020F0000C000828F8D10CBD0038024000700040E8
:1021000008544007003C0240042808D14FF0E02169
:10211000096941F004014FF0E022116107E04FF03E
:10212000E021096921F004014FF0E02211617047BC
:102130007047000010B51948006840F47000174956
:1021400008601748006840F0010015490860002049
:1021500013490831086012480068124908401049C4
:1021600008601148091D0860081F006820F48020DD
:10217000091F086000200A490C310860FFF74EFF74
:102180004FF0E020006920F001004FF0E0210861ED
:102190004FF0006001498039086010BD88ED00E013
:1021A00000380240FFFFF6FE103000242DE9F04118
:1021B00000240025002600270221264800F082F88E
:1021C00068B10221234800F062F8224800F06EF85E
:1021D00004462148008821181E4800F0B3FA042163
:1021E0001C4800F06FF868B104211A4800F04FF85D
:1021F000184800F05EF80546184800882918154868
:1022000000F0A2FA0821134800F05CF868B1082138
:10221000104800F03CF80F4800F04EF80646104811
:10222000008831180B4800F091FA1021094800F09D
:1022300049F868B11021074800F029F8054800F076
:102240003EF80746074800883918024800F080FA2F
:10225000BDE8F08100080040340000203600002076
:10226000380000203A00002010B50121054800F098
:1022700029F830B10121034800F009F8032004F0E7
:10228000BDF910BD00100040CA4302827047CA4326
:102290000282704721B1028842F00102028004E00C
:1022A00002884FF6FE731A40028070470146486B61
:1022B00070470146886B70470146C86B70470146FE
:1022C000086C704730B50246002000230024158AB0
:1022D00005EA0103958905EA010413B10CB1012057
:1022E00000E0002030BD1AB183890B43838102E0F6
:1022F00083898B43838170470EB501211020FFF73E
:1023000011FD40F2CF70019042F2CF00ADF8000015
:102310006946094800F01EFA01210748FFF7B4FF9B
:1023200000F05AFA012211460348FFF7DCFF0121B1
:102330000148FFF7AFFF0EBD0010004070B500244C
:1023400000220023058C4FF6FE7635400584028C72
:102350008388048B4FF68F752C40B51E2C400D885A
:102360002C43751E2A408D892A434D882A43104DDF
:10237000A84202D00F4DA84213D14FF6F7752A405C
:10238000CD892A434FF6FB752A408D882A434FF6A4
:10239000FF652B404FF6FF552B400D8A2B434D8A8E
:1023A0002B43838004838D684563028470BD0000E5
:1023B00000000140000401400A460021018B4FF655
:1023C000F7731940114301837047000070B5002472
:1023D00000220023058C4FF6EF7635400584028CF1
:1023E0008388048B48F6FF752C404FF6FF452C4040
:1023F0000D884FF6FF7606EA05252C434FF6DF756C
:102400002A408D8906EA05152A434D8806EA0515F6
:102410002A43154DA84202D0144DA8421DD14FF6B3
:102420007F752A40CD894FF6FF7606EA05152A43C7
:102430004FF6BF752A408D8806EA05152A434FF6E8
:10244000FF352B404FF2FF752B400D8A06EA8505BC
:102450002B434D8A06EA85052B43838004838D68D0
:102460008563028470BD000000000140000401404B
:102470000A460021018B4FF2FF7319404FF6FF739C
:1024800003EA0223194301837047000070B500245A
:1024900000220023058C4FF6FF6635400584028C30
:1024A0008388848B4FF68F752C404FF6FC752C403B
:1024B0000D882C434FF6FF552A408D894FF6FF7645
:1024C00006EA05252A434D8806EA05252A43154DC7
:1024D000A84202D0144DA8421DD14FF2FF752A40E8
:1024E000CD894FF6FF7606EA05252A434FF6FF35DC
:1024F0002A408D8806EA05252A434EF6FF752B40B3
:102500004DF6FF752B400D8A06EA05152B434D8AC3
:1025100006EA05152B43838084838D68C563028496
:1025200070BD000000000140000401400A46002187
:10253000818B4FF6F7731940114381837047000078
:1025400070B5002200230024058C4EF6FF7635403E
:102550000584038C8488828B48F6FF752A404FF6E9
:10256000FF452A400D884FF6FF7606EA05252A43E7
:102570004DF6FF752B408D8906EA05352B434D88B6
:1025800006EA05352B430A4DA84202D0094DA84260
:1025900008D14BF6FF752C400D8A4FF6FF7606EA00
:1025A00085152C43848082838D680564038470BD07
:1025B00000000140000401400A460021818B4FF2D7
:1025C000FF7319404FF6FF7303EA02231943818317
:1025D0007047002101804180818081608181C181BB
:1025E000018241827047000030B58BB005460C4631
:1025F00001210820FFF786FB01210420FFF792FB51
:1026000002220C214948FEF71BFB02220D214748FC
:10261000FEF716FB02220E214448FEF711FB0222B0
:102620000F214248FEF70CFB4FF47040009002204F
:102630008DF8040000208DF806008DF807000320B7
:102640008DF8050069463948FEF7B2FA4FF4A060EC
:10265000FEF7CAFE1E208DF8080000208DF8090044
:1026600001208DF80A008DF80B0002A8FEF780FE0D
:102670000995ADF820400020ADF82800ADF8220003
:1026800008A92B4800F066F83020ADF80C000120B6
:10269000ADF80E000020ADF818002648008805901F
:1026A00003A92348FFF74AFE00212148FFF784FED3
:1026B00021480088059003A91D48FFF787FE0021E7
:1026C0001B48FFF7D5FE1D480088059003A9184850
:1026D000FFF7DCFE00211648FFF728FF18480088A6
:1026E000059003A91248FFF72BFF00211048FFF7C0
:1026F00063FF03A8FFF76DFF00210D48FFF7CAFD38
:10270000012202210A48FFF7EEFD012204210848B8
:10271000FFF7E9FD012208210548FFF7E4FD01224A
:1027200010210348FFF7DFFD0BB030BD000C024065
:10273000000800403400002036000020380000204F
:102740003A0000204163704781637047C16370475E
:102750000164704700220288184B98420ED0184B33
:1027600098420BD0B0F1804F08D0164B984205D05C
:10277000154B984202D0154B984204D14FF68F73F7
:102780001A404B881A43124B984207D0114B98427B
:1027900004D04FF6FF431A400B891A4302804B685E
:1027A000C3620B880385054B984202D0044B9842C4
:1027B00001D18B7A03860123838270470000014098
:1027C000000401400004004000080040000C0040EC
:1027D000001000400014004008B54FF4E060FEF720
:1027E00003FE36208DF8000000208DF80100032044
:1027F0008DF8020001208DF803006846FEF7B8FD51
:1028000008BD21B1828942F40052828104E08289AC
:102810004DF6FF731A408281704702460020B1F5E1
:10282000007F00D100BF13880B400BB1012000E0F6
:1028300000207047F0B50346002400260025002044
:1028400040F66A17B94200D100BF1846C1F34214DE
:1028500001F01F06012707FA06F5012C01D10C3003
:1028600004E0022C01D1103000E014301AB10768E6
:102870002F43076002E00768AF430760F0BD000028
:102880002DE9FF4705460E460024A14600BFA0469D
:10289000B08900B100BF2C8A24F44054F08804436E
:1028A0002C82AC8941F20C608443B08831890843A2
:1028B000718908430443AC81AC8A24F44074B08924
:1028C0000443AC826846FFF74DFA2048854202D0A7
:1028D0001F48854202D1DDF80C9001E0DDF8089038
:1028E000A88900F4004040B109EBC90000EB0910D1
:1028F00031684900B0FBF1F707E009EBC90000EBD4
:10290000091031688900B0FBF1F76420B7FBF0F0E3
:1029100004012009642101FB1078A88900F400401B
:1029200040B1322000EBC800B0FBF1F000F007002E
:10293000044308E0322000EB08106421B0FBF1F002
:1029400000F00F0004432C81BDE8FF870010014018
:1029500000140140C1F308028280704700BFFEE707
:1029600070B504460D4629462046FFF7F3FF00BF29
:1029700080212046FFF751FF0028F9D070BD0000EC
:102980000FB4054B10B503A9044A029800F0C0FD2E
:1029900010BC5DF814FB0000754A0008AC00002074
:1029A0000FB4084B10B504A902AA039800F0B0FDBB
:1029B000044602A9002001F042F9204610BC5DF84F
:1029C00014FB00003F3C000803B40198410000984C
:1029D00050EAC12018BF04204A0D18BF40F0010082
:1029E00040F2FF72B2EB515F08BF40F002000128D5
:1029F00008BF052002B0704770B5C1482DED020B2D
:102A00002DED0E8B82B0119D25F000449FEDBEDBB5
:102A10009FEDBFEB84423EDBA4F140511098A1F141
:102A20007F6108430FD0BC48844202DC28D1109853
:102A300030B39DED100B02B0BDEC0E8B02B0BDE8C3
:102A4000704000F069BC9DED100B53EC1D2B51EC58
:102A5000100BFDF7ACFC9DED100B41EC180B53EC8B
:102A60001E2B51EC100BFDF7A2FC53EC182BFDF7BD
:102A7000F7FB41EC100B02B0BDEC0E8B02B070BD49
:102A8000012000F08DFC02B0BDEC0E8B02B0BDE861
:102A9000704000F055BCA1489FEDA18B844256DAEE
:102AA0009DED100BB4F1795F0ADA51EC100BFFF7D2
:102AB0008BFF042808BF00F053FC9DED100BDAE7F4
:102AC00053EC102B51EC100BFDF771FC41EC190B82
:102AD00095480621B0EE490AF0EE690A784400F004
:102AE0009FFB53EC192B51EC100BFDF760FC41ECF4
:102AF0001A0B8E48B0EE490AF0EE690A04217844B8
:102B000000F08EFB53EC192B51EC100BFDF74FFC32
:102B100053EC182BFDF7A4FB41EC100B51EC1A0BF6
:102B200053EC102BFDF7B5FCCDE900019DED000B3A
:102B300053EC102B9DED100B51EC100BFDF737FCF7
:102B40009DED101B53EC112BFDF78AFBD2E09DEDA0
:102B5000100B51EC100B01F081FF53EC182BFDF71B
:102B600023FC9FED730BCDE9000153EC102B9DED81
:102B7000000B51EC100BFDF71AFC41EC190B6E48E1
:102B80000621B0EE490AF0EE690A784400F048FBED
:102B900053EC192B51EC100BFDF709FC41EC1B0B0E
:102BA0006648B0EE490AF0EE690A0421784400F064
:102BB00037FB53EC192B51EC100BFDF7F8FB53ECE2
:102BC000182BFDF74DFB41EC1C0B51EC190B03F0DE
:102BD00065FE41EC180B5A489FED5BABA04222DC2E
:102BE00053EC1C2B51EC1B0BFDF753FCCDE9000102
:102BF0009DED000B51EC180B53EC102BFDF7D7FBA0
:102C000053EC182BFDF72CFB53EC1A2BFDF7CFFBE5
:102C100053EC1D2BFDF7C5FB53EC1E2BFDF7C4FB3E
:102C200041EC100B5FE08DED008B002000909DEDDE
:102C3000000B51EC180B53EC102BFDF711FB9DED25
:102C4000000B41EC1E0B53EC102B51EC100BFDF75D
:102C5000AEFB53EC192BFDF7A7FB53EC1E2BFDF736
:102C600018FC41EC190B53EC1C2B51EC1B0BFDF722
:102C700010FC41EC1B0B53EC1A2B51EC190BFDF71C
:102C800096FB53EC1D2BFDF78FFB41EC190B53EC1E
:102C90001A2B51EC180BFDF78AFB53EC1B2BFDF79D
:102CA00086FB53EC192BFDF77CFB9DED000B41ECF3
:102CB000180B53EC1A2B51EC100BFDF778FB9FED22
:102CC000249B53EC192BFDF76FFB41EC100B51ECDF
:102CD000180B53EC102BFDF764FB53EC192BFDF78D
:102CE00063FB41EC100B002D3FF7C5AE51EC100B10
:102CF00081F0004141EC100BBDE600000000000037
:102D00000000F03F00000000075C143326A6913C51
:102D1000182D4454FB21F93F0000F07F0000E03FF4
:102D2000000000000000F03F886800009668000086
:102D3000000000000000E03FDA670000E8670000E4
:102D40003333EF3F000000000000000000000040AF
:102D5000182D4454FB21E93F70B59B482DED020B23
:102D60002DED068B079D25F00044A04218DC974806
:102D7000844202DC0AD1069840B19DED060BBDEC01
:102D8000068B02B0BDE8704000F0C6BA002DCCBF83
:102D90009FED8F0B9FED900BBDEC068B02B070BDCD
:102DA0008F48A04215DD8F48A042D8BF4FF0FF34B6
:102DB00058DD9DED060B51EC100BFFF705FE0428C6
:102DC00008BF00F0CDFA9DED060BBDEC068B02B0FE
:102DD00070BD9DED060B51EC100B01F03FFECDE9EF
:102DE000060181489FED828BA0423CDD8248A042D3
:102DF0001FDD00249FED82AB9DED060B53EC1A2BDB
:102E000051EC100BFDF72CFA9DED060B41EC190B64
:102E100053EC1A2B51EC100BFDF7C9FA53EC182B9D
:102E2000FDF7BFFA53EC192BFDF733FBCDE9060193
:102E300049E09DED060B012453EC182B51EC100BCF
:102E4000FDF70EFA9DED060B41EC190B53EC182B18
:102E500051EC100BFDF7A5FA53EC192BFDF719FBFC
:102E6000CDE906012FE06848A0421FDD02249FED56
:102E7000689B9DED060B53EC192B51EC100BFDF7E5
:102E800096FA53EC182BFDF7EBF99DED060B41EC90
:102E9000180B53EC192B51EC100BFDF782FA53EC85
:102EA000182BFDF7F6FACDE906010CE09DED060BB7
:102EB000032453EC102B9FED580B51EC100BFDF736
:102EC000E8FACDE906019DED060B53EC102B51EC11
:102ED000100BFDF76CFA41EC180B53EC182BFDF7B7
:102EE00066FA41EC190B4E480621B0EE490AF0EEA5
:102EF000690A784400F094F953EC182B51EC100B4C
:102F0000FDF755FA41EC180B4648B0EE490AF0EED1
:102F1000690A0521784400F083F953EC192B51EC30
:102F2000100BFDF744FA41EC100B51EC180B53EC6D
:102F3000102B002C0EDAFDF793F99DED061B53ECD8
:102F4000112BFDF734FA9DED061B53EC112BFDF709
:102F50002BFA35E0FDF784F99DED061B53EC112BA0
:102F6000FDF725FA41EC100B2F48784400EBC40024
:102F700090ED001B51EC100B53EC112BFDF711FAE7
:102F80009DED061B53EC112BFDF70BFA41EC100BDA
:102F90002648784400EBC40090ED001B51EC100B68
:102FA00053EC112BFDF700FA41EC100B002DA2BFE2
:102FB000BDEC068B02B070BD51EC100B81F00041EE
:102FC00041EC100B01E70000000010440000F07F0E
:102FD000182D4454FB21F93F182D4454FB21F9BF0F
:102FE0000000DC3F0000203E0000F33F0000000036
:102FF000000000000000F03F0000E63F000000007D
:1030000000000000000000400080034000000000BD
:10301000000000000000F83F000000000000F0BFCA
:103020002A650000E06400006A6400002264000079
:1030300070B56B4E2DED040B2DED028B82B0DDF8DB
:103040001CC0DDE905235C422CF000411C4341EA31
:10305000D474049D22F00040B44205D86C422C4345
:1030600040EAD474B4420BD99DED061B9DED040BD0
:1030700002B0BDEC028B04B0BDE8704000F056B960
:10308000ACF14054A4F17F641C430BD0022404EA49
:10309000AC7444EAD27405439FED538B9FED542BDF
:1030A00007D015E09DED040B51EC100B00F02CFE49
:1030B00042E0002C11BF012C9DED040B02B0BDECD1
:1030C000028B04BF04B070BD022C38D0032C3BD05F
:1030D0000B439FED491B9FED4A0B0AD0B14218D11B
:1030E000B04209D121F0804120F080400791059045
:1030F0000FE0002A15DA10E0434B7B44002C08BF98
:1031000093ED000B0DD0012C10D0022C17D0032C06
:103110001AD0B0421DD1002A03DAB0EE410AF0EE17
:10312000610A02B0BDEC028B04B070BD93ED000BE0
:1031300051EC100B81F0004141EC100BF1E7B0EEC7
:10314000480AF0EE680AECE7B0EE420AF0EE620AD6
:10315000E7E7401A00153C28C8BF8DED000B19DCCD
:10316000BCF1000FBEBF10F13C0F9FED290B8DEDA0
:10317000000B0FDB9DED060B53EC102B9DED040BAC
:1031800051EC100BFDF785F901F068FC00F0BCFD77
:10319000CDE90001002C08BF9DED000BC1D0012C32
:1031A00010D0022C9FED1C0B53EC102B9DED000B4F
:1031B00051EC100B0DD0FDF7F4F853EC182BFDF784
:1031C000F0F8B9E7019880F0004001909DED000B08
:1031D000A7E7FDF7E6F853EC182BFDF7E5F8ABE7AA
:1031E0000000F07F00000000182D4454FB2109402E
:1031F000182D4454FB2109C0182D4454FB21F9BF5C
:10320000182D4454FB21F93F5263000000000000D8
:103210000000000000000000075C143326A6A13C5B
:1032200070B504462DED028B4D1E00EBC500B0EECF
:10323000408AF0EE608A90ED000B35F0060017D062
:1032400053EC182B51EC100BFDF7B1F841EC100BBF
:103250006D1E04EBC50090ED001B51EC100B53EC00
:10326000112BFCF7FDFF41EC100B35F00600E7D108
:10327000022D36D0042D1CD0062D1CBFBDEC028BB8
:1032800070BD53EC182B51EC100BFDF790F894ED3A
:103290000A1B53EC112BFCF7E3FF53EC182BFDF743
:1032A00086F894ED081B53EC112BFCF7D9FF41EC89
:1032B000100B53EC182B51EC100BFDF778F894ED34
:1032C000061B53EC112BFCF7CBFF53EC182BFDF72F
:1032D0006EF894ED040B53EC102BFCF7C1FF41EC9E
:1032E000100B53EC182B51EC100BFDF760F894ED1C
:1032F000021B53EC112BFCF7B3FF53EC182BFDF71B
:1033000056F894ED001B53EC112BFCF7A9FFBDEC14
:10331000028B41EC100B70BD10B553EC102B51EC2F
:10332000100BFCF79DFF41EC100B10BD10B553ECDA
:10333000112B51EC100BFCF793FF41EC100B10BD5F
:103340009FED050B10B553EC102B51EC100BFDF756
:10335000A0F841EC100B10BD0000000000000000C0
:103360009FED050B10B553EC102B51EC100BFDF736
:103370001EF841EC100B10BD000000000000001012
:1033800002E008C8121F08C1002AFAD1704770472E
:10339000002001E001C1121F002AFBD1704700008C
:1033A0000149086070470000B00000202DE9FF5F70
:1033B000DDE90220010DDDF838B0024318D044F6F3
:1033C0001050A1F2FF3141430D140F98012820D075
:1033D000A5EB0B00401C5FEA000A4FF00004474ECB
:1033E000DFF81C91A046504616D5CAF1000728E028
:1033F0000F98012443A2012808D0002100980F9BB8
:10340000C0E90021C0E90243BDE8FF9F6FEA0B015C
:10341000F4E7CBF10000DEE7074612E0F80707D03B
:103420002246334640464946FCF7C1FF804689465E
:103430002246334610461946FCF7B9FF04460E46AD
:103440007F10002FEAD1DDE90201BAF1000F4246F8
:103450004B4602DAFCF7ABFF01E0FDF71AF8044631
:103460000E460022284BFDF7C7F903D84FF0FF3076
:10347000014607E00022254B20463146FCF7F0FECE
:10348000FDF7A1F9102409E0002C0ADB0A22002331
:10349000FDF7B3F8019B30321A55641E50EA010261
:1034A000F2D1641C019AC4F1110314440F9A012A49
:1034B00003D0012208430DD10AE0084304D00020C4
:1034C0004FF0110B0F9080E7A3EB0B056D1E0DE085
:1034D0005B4504DD4FF0000205F1010504E003DA6D
:1034E0004FF00002A5F10105002AECD000980F99D9
:1034F000C0E90231C0E9004586E700000000244031
:103500000000F03F300000000000F0430000E03F0A
:103510002DE9FF4F95B09B468946064600250FE2F0
:10352000252877D100242746F84A0121059400E098
:10353000044316F8013F203B01FA03F01042F7D193
:1035400030782A2811D06FF02F033078A0F13002A4
:10355000092A16D8059A44F0020402EB820203EB12
:1035600042021044761C0590EFE759F8042B0592AF
:10357000002A03DA504244F40054059044F0020457
:10358000761C30782E2816D116F8010F44F004046A
:103590002A280DD06FF02F023078A0F13003092BCC
:1035A00009D807EB870302EB4303C718761CF3E740
:1035B00059F8047B761C30786C280FD006DC4C2838
:1035C00017D068280DD06A2814D104E0742810D0D0
:1035D0007A280FD10DE044F400140AE044F480147A
:1035E00001E044F440147278824202D104F5801460
:1035F000761C761C307866280BD013DC582877D0E0
:1036000009DC002875D04528F6D04628F4D0472894
:103610001AD19DE118E0632835D0642879D0652857
:1036200012D195E1702873D008DC6728F1D06928A1
:103630006FD06E280DD06F2806D1B5E073282CD03E
:10364000752875D0782874D05A46179990476D1C04
:1036500075E1C4F30250022809D003280DD0D9F82F
:10366000001004280DD00D6009F1040967E1D9F8B4
:103670000010EA17C1E90052F6E7D9F800100D80F2
:10368000F2E70D70F0E719F8041B8DF80010002028
:103690008DF80100EA46012003E059F804AB4FF031
:1036A000FF3061074FF0000102D40DE008F1010185
:1036B0008846B9420FDA8045F8DB1AF8081000296D
:1036C000F4D108E008F1010188468142FADB1AF8DA
:1036D00008100029F6D105985B46A0EB08072146A3
:1036E0003846179A00F094FA284400EB080507E0E2
:1036F0004DE029E10DE01AF8010B5A461799904761
:10370000B8F10108F7D25B4621463846179A13E113
:1037100042E00A220092C4F302524FF0000A022A49
:1037200008D059F804CB032A4FEAEC710AD00DE017
:1037300029E02AE009F1070121F00702F2E802C1BD
:10374000914609E00FFA8CFC4FEAEC71042A03D190
:103750004FFA8CFC4FEAEC71002907DA0A46002187
:10376000DCF1000C61EB02012D2202E0220504D500
:103770002B228DF80420012203E0E20701D0202251
:10378000F7E7904659E00A2102E010220DE01021EF
:103790004FF0000A00910BE010224FF0000A44F0B5
:1037A00004040827009203E008224FF0000A009268
:1037B000C4F30252022A05D059F804CB0021032A8F
:1037C00008D009E009F1070121F00702F2E802C17F
:1037D000914605E01FFA8CFC042A01D10CF0FF0C85
:1037E0004FF00008220728D5702806D0009B83F0F0
:1037F000100353EA0A0305D00EE040228DF804209E
:10380000012208E05CEA010206D030228DF8042093
:103810008DF8050002229046009B83F0080353EACE
:103820000A030AD15CEA010201D1620705D5302200
:103830008DF804204FF001087F1E582804D034A0D2
:1038400003900EA802900DE036A0F9E753466046BB
:10385000009AFCF7D2FE84460398825C0298401ED0
:10386000029002705CEA0100F0D1029806A9081AE1
:1038700000F1200A600702D524F4803400E001271B
:10388000574502DDA7EB0A0000E0002000EB0A012B
:10389000009005984144401A0590E00306D45B4629
:1038A0002146179A059800F0B3F90544002706E071
:1038B00001A85A46C05D179990476D1C7F1C47456B
:1038C000F6DBE0030CD55B462146179A059800F01D
:1038D0009FF9054404E030205A46179990476D1C23
:1038E0000099481E00900029F5DC08E00298029932
:1038F0005A460078491C0291179990476D1CBAF1FD
:103900000001AAF1010AF1DC65E1000009280100CB
:103910003031323334353637383961626364656645
:103920000000000030313233343536373839414207
:10393000434445460000000000F058F90544761C59
:10394000307800287FF4ECAD19B02846BDE8F08F40
:10395000620700D4062709F1070222F0070CFCE8F1
:103960000223E14603F000485FEA080C02D00FF2A0
:10397000702C0DE05FEA045C02D50FF2682C07E0C2
:103980005FEAC47C02D00FF2602C01E0AFF2700C51
:103990004FF0FF3823F00043CDF850C065280CD01D
:1039A00006DC452809D046281DD047283DD13DE0FA
:1039B000662818D067287ED138E00021112F01DB5E
:1039C000112000E0781CCDE9000106A90EA8FFF740
:1039D000EDFCDDE90F010E9A03910021009207F141
:1039E000010A04914DE04FF000400097CDE901102D
:1039F00006A90EA8FFF7DAFCDDE90F0203920E9B81
:103A000011990022DDF80CA00093049211B9791CE1
:103A100000EB010AB7EB0A0004D4C0F1FF3007F154
:103A2000010A0490AAEB0700019044E0012F00DA9C
:103A300001270021112F01DD112000E03846CDE9DA
:103A4000000106A90EA8FFF7B1FCDDE90F010E9AEF
:103A50000391002104910092BA4621070CD40399E6
:103A6000514500DA8A46BAF1010F05DD009AAAF144
:103A70000101515C302908D0B84202DA10F1040F7C
:103A800006DA0121CDE9011015E0AAF10101E9E70B
:103A9000002805DC049901440491AAEB000102E02E
:103AA000411C514500DD8A460499401A401C019092
:103AB0004FF000400290200704D40198504501DBEC
:103AC000CDF8048000208DF84F0002980DF14F07CB
:103AD000B0F1004F25D02B200E9002984FF0020835
:103AE00000280CDA404202902D200E9007E00A21B7
:103AF0000298FCF76CFD3031029007F8011DB8F117
:103B00000001A8F10108F2DC02980028EFD1791E2B
:103B10000E980870307800F0200040F0450007F85B
:103B2000020D12A8C01B00F107081498007800B11C
:103B3000012000EB0A01019801EBE0710598414476
:103B4000401A401E0590E00306D45B462146179AB2
:103B5000059800F05DF805441498007818B15A46AD
:103B6000179990476D1CE00324D55B462146179AB0
:103B7000059800F04DF805441CE00498002807DB88
:103B8000DDE90301884203DD0098405C179901E0FC
:103B9000179930205A469047049805F10105401CBA
:103BA00004900198401E019004D12E205A46179986
:103BB00090476D1CBAF10001AAF1010ADDDC05E0B5
:103BC00017F8010B5A46179990476D1CB8F1000180
:103BD000A8F10108F4DC5B462146179A0598ABE68C
:103BE0002D0000002B000000200000002DE9F04116
:103BF000044600251E461746880404D405E03946CD
:103C00002020B0476D1C641EF9D52846BDE8F08120
:103C10002DE9F041044600251E469046C80301D513
:103C2000302700E02027880404D505E041463846C7
:103C3000B0476D1C641EF9D52846BDE8F0810A68BE
:103C4000531C0B6010707047F0B52DED028B83B0E4
:103C500006460F460025684600F01AFF002447E09C
:103C600056F8241057F82420881A002801DB014652
:103C700000E0414200EE101AB8EEC00ADFED200A63
:103C800080EE208A684600EB840090ED000AB5EED5
:103C9000C00AF1EE10FA18D0684600EB8400D0EDAF
:103CA000000A88EE200AF7EE000A70EE608AB0EE95
:103CB000E80A1448D0ED090AB4EEE00AF1EE10FA71
:103CC00015DD0120A040054311E00E4890ED070AE4
:103CD000B4EEC80AF1EE10FA06DC90ED080AB4EE74
:103CE000C80AF1EE10FA02D20120A0400543641C7C
:103CF000032CB5DB284603B0BDEC028BF0BD000001
:103D0000000080474487000810B541EC100BFFF716
:103D100023F851EC100B10BD2DE9F0410446E0787A
:103D200000F0C006E07800F03F05607800F0010088
:103D300098B1EF102846E91705EB5171C910A5EBB2
:103D4000C101491C01F0FF080B48006820B10A4876
:103D5000414602683846904700BF607800F008008E
:103D600030B10548406818B1B011034A516888471E
:103D70000020BDE8F0810000B404002010B5044626
:103D80006FF00400FEF7C0F9E11704EB5171C1F3C5
:103D9000C701074A11701046007800EB4001C1EBE3
:103DA000C0104FF6FF7101EAC0000249088010BD43
:103DB0004C0000204E00002070B504464FF4077000
:103DC00094FBF0F0C6B24FF4077094FBF0F100FBE7
:103DD000114085B205E04FF4077000F02FF8701E17
:103DE000C6B2002EF7D115B1284600F027F870BDF5
:103DF0000146114A12784A434FF0E0235A610022EB
:103E00009A611A46126942F001021A6100BF4FF02E
:103E1000E022106900F001021AB100F48032002A99
:103E2000F5D04FF0E022126922F001024FF0E023BA
:103E30001A6100229A6170474C0000200146114A25
:103E400012884A434FF0E0235A6100229A611A46D1
:103E5000126942F001021A6100BF4FF0E0221069BE
:103E600000F001021AB100F48032002AF5D04FF0C0
:103E7000E022126922F001024FF0E0231A610022D1
:103E80009A6170474E00002038B5044664B1202086
:103E90008DF8000028208DF8010030208DF80200F8
:103EA00038208DF8030004E0A32204216846FCF7C3
:103EB000B8F96A46042140F69E2002F05FFB01F04B
:103EC00049FF38BD3EB5044602208DF80000CA20E7
:103ED0008DF80100E3208DF8020009208DF8030021
:103EE0006A460421682002F049FBA3208DF80000F7
:103EF00004F0400048B1C0208DF80100C8208DF8C2
:103F00000200C2208DF8030006E0A3208DF8010016
:103F10008DF802008DF8030004F4C07048B1C4208D
:103F20008DF80400CC208DF80500C6208DF8060021
:103F300006E0A3208DF804008DF805008DF806003A
:103F4000A3208DF807008DF808008DF809006A4657
:103F50000A2140F6A72002F011FB04F0030018B17B
:103F600020208DF8000002E0D8208DF800006A467D
:103F7000012140F6B62002F001FB04F0200018B148
:103F8000012000F0ADF802E0002000F0A9F804F4F0
:103F9000C07008B304F4807060B1B2208DF80000E6
:103FA0008B208DF80100B6208DF802009B208DF843
:103FB00003000BE0B0208DF8000080208DF8010098
:103FC000B4208DF8020090208DF803006A46042189
:103FD00040F6A22002F0D2FA04F0010020B3F8204B
:103FE0008DF800006A4601214FF40B6002F0C6FA1A
:103FF000FA21072000F02CFC072000F0F3FB012041
:1040000000F013FC642000F003FD4FF4FA7000F0A0
:1040100012FDC821304800F0A3FB282000F0BCFBB3
:104020000A2000F0CCFB08E0D8208DF800006A469A
:1040300001214FF40B6002F0A1FA04F0020018B164
:10404000D9208DF8000002E0D8208DF800006A46E3
:10405000012140F23D7002F091FA04F0040018B121
:10406000012000F069F802E0002000F065F804F09B
:10407000100018B10120FFF707FF02E00020FFF752
:1040800003FF44F008001549488101F063FE002059
:104090001249887304F0400018B10846807B801DE7
:1040A000887304F4C07020B10C48807B801D0B49DC
:1040B000887304F0140020B10848807B1030074951
:1040C000887304F0030020B10448807B001D03497D
:1040D000887300203EBD000009E3CA02B40400203A
:1040E0003EB504466CB10EA1D1E900208968CDE946
:1040F000002002916A4609214FF4976002F03EFACF
:104100003EBD0AA2D2E900109268CDE901020091F9
:104110006A4609214FF4976002F030FAF0E7000098
:10412000B8AAB38DB4980D355D000000B8AAAAAA4C
:10413000B088C3C5C700000038B5044664B1C020CC
:104140008DF80000C2208DF80100C4208DF8020017
:10415000C6208DF8030004E08B2204216846FCF79A
:1041600060F86A46042140F6982002F007FA01F050
:10417000F1FD38BD10B5C8234FF48062024940F606
:10418000F63001F07BFC10BD6C8700082DE9F04F84
:104190008DB00746884615469946DDE9166B002422
:1041A000002030806B49887B5A4605A901F032FD1A
:1041B00018B1601E0DB0BDE8F08F6648807A00F03F
:1041C0001400002867D09DF8140000069DF8151013
:1041D00040EA01409DF8161040EA01209DF81710B2
:1041E000084328609DF8180000069DF8191040EA61
:1041F00001409DF81A1040EA01209DF81B10084369
:1042000068609DF81C0000069DF81D1040EA014002
:104210009DF81E1040EA01209DF81F100843A86079
:104220009DF8200000069DF8211040EA01409DF80D
:10423000221040EA01209DF823100843E86004F1B1
:104240001000C4B22868001401906868001402903D
:10425000A86800140390E868001404900198404393
:10426000029901FB0100039901FB0100049901FB84
:10427000010ABAF1706F02DBBAF1885F05DD01F067
:1042800069FD00203080401E94E7B6F9000040F43C
:104290008070308000BF2F48807A00F0400020B34B
:1042A00005A9601C085C095D40EA012000B2A8F87D
:1042B000000005A9E01C095C05AAA01C105C41EAED
:1042C000002000B2A8F8020005A9601D095C201DAD
:1042D000105C41EA002000B2A8F80400A01DC4B29E
:1042E000B6F9000040F0080030801A48408900F418
:1042F000C07008B305A9601C085C095D40EA012094
:1043000000B2388005A9E01C095C05AAA01C105C5D
:1043100041EA002000B2788005A9601D095C201DDB
:10432000105C41EA002000B2B880A01DC4B2B6F90A
:10433000000040F0700030800648807A00F00300F2
:1043400018B105A90819FFF7E7FC484601F02CF859
:1043500000202FE7B404002070B588B0064601A8FD
:1043600001F0D8F9BDF804000021C90341EA504525
:10437000C4034448007A00F0030056F8200005907A
:104380004048007A00F0040010B1059840420590C2
:104390003C48007AC0F3C10056F820000690394826
:1043A000007A00F0200010B106984042069035488F
:1043B000007AC0F3811056F8200007903148008938
:1043C00000F4807010B10798404207900598C1171B
:1043D000A0FB042301FB043100FB0510810041EA2E
:1043E000927005900698C117A0FB042301FB0431CD
:1043F00000FB0510810041EA927006900798C117F2
:10440000A0FB042301FB043100FB0510810041EAFD
:10441000927007900598000E8DF808000598000C22
:104420008DF809000598000A8DF80A000598C0B2B9
:104430008DF80B000698000E8DF80C000698000C05
:104440008DF80D000698000A8DF80E000698C0B28F
:104450008DF80F000798000E8DF810000798000CDB
:104460008DF811000798000A8DF812000798C0B265
:104470008DF8130002AA0C214FF4257002F07EF88B
:1044800008B070BDB404002030B585B0044616A253
:1044900007CA02AB07C3C82C03DD4FF0FF3005B0DD
:1044A00030BDC82090FBF4F0401E85B2280A8DF87C
:1044B0000000E8B28DF801006A46022140F21620A1
:1044C00002F05CF810B14FF0FF30E8E702AA0C21CF
:1044D00040F6C12002F052F810B14FF0FF30DEE795
:1044E000044884810020DAE7FEF2ABC4AAF1DFDFE2
:1044F000BBAFDFDFB40400201FB504464848007A94
:1045000000F0030054F8200001904548007A00F0C4
:10451000040010B10198404201904148007AC0F374
:10452000C10054F8200002903D48007A00F02000BD
:1045300010B10298404202903948007AC0F38110CD
:1045400054F8200003903648008900F4807010B1C0
:104550000398404203903349019880FB0101800F8A
:1045600040EA810001902F49029880FB01108200EF
:1045700042EA917002902B49039880FB011082005F
:1045800042EA917003900198000E8DF800000198A6
:10459000000C8DF801000198000A8DF802000198C6
:1045A000C0B28DF803006A4604214FF4747001F024
:1045B000E5FF18B14FF0FF3004B010BD0298000EB7
:1045C0008DF800000298000C8DF801000298000A96
:1045D0008DF802000298C0B28DF803006A460421EB
:1045E0004FF4757001F0CAFF10B14FF0FF30E3E7F0
:1045F0000398000E8DF800000398000C8DF8010060
:104600000398000A8DF802000398C0B28DF80300E9
:104610006A4604214FF4767001F0B0FFCCE7000049
:10462000B404002009E3CA0210B586B0044647A0CE
:104630000068039046A00068029046A000680190C0
:1046400045A00068009004F0030003A9085C8DF801
:10465000140003A8C4F3C101405C8DF8150003A841
:10466000C4F38111405C8DF8160004F0030002A928
:10467000085C8DF8100002A8C4F3C101405C8DF8FD
:10468000110002A8C4F38111405C8DF8120005AA44
:10469000032140F2264001F071FF18B14FF0FF30C6
:1046A00006B010BD04AA032140F22A4001F066FFC3
:1046B00010B14FF0FF30F3E7019805900098049097
:1046C00004F0040058B19DF8140040F001008DF88A
:1046D00014009DF8100040F001008DF8100004F067
:1046E000200058B19DF8150040F001008DF815002C
:1046F0009DF8110040F001008DF8110004F4807065
:1047000058B19DF8160040F001008DF816009DF894
:10471000120040F001008DF8120005AA03214FF4A9
:10472000886001F02BFF10B14FF0FF30B8E704AA0A
:10473000032140F2314001F021FF10B14FF0FF3072
:10474000AEE7064804810020AAE700004CCD6C00CB
:104750000CC92C003656760026466600B4040020AC
:10476000F8B505460E464FF47A7095FBF0F000FB65
:1047700006F4200E8DF80000200C8DF80100200AB0
:104780008DF80200E0B28DF803006A4604214FF470
:10479000AE7001F0F3FEF8BD38B50446052094FB79
:1047A000F0F084B220128DF80000E0B28DF8010024
:1047B0006A4602214FF4AD7001F0E0FE38BD38B515
:1047C0000446052094FBF0F084B220128DF800001E
:1047D000E0B28DF801006A4602214FF4AC7001F09E
:1047E000CDFE38BD38B504460020009004F001002D
:1047F00020B19DF8000040F03000009004F002006D
:1048000020B19DF8000040F00C00009004F004007E
:1048100020B19DF8000040F0030000906A4601219D
:104820004FF4A47001F0AAFE38BD38B50446012C3F
:1048300001DA012402E0042C00DD0424601EC0B271
:1048400000906A46012140F24F1001F097FE38BDFA
:10485000F0B52DED028B83B006460F4606F007003B
:1048600010B1B7F5C86F05DD4FF0FF3003B0BDECF8
:10487000028BF0BD00EE107AB8EE400ADFED5B0A65
:1048800080EE208A01A800F01FFF9DF80400022896
:1048900006D0042817D0082828D010284CD138E09A
:1048A0009FED530A28EE000ABCEEC00A10EE100A73
:1048B00084B29FED500A28EE000ABCEEC00A10EE4A
:1048C000100A85B23BE09FED4C0A28EE000ABCEED0
:1048D000C00A10EE100A84B29FED480A28EE000AC2
:1048E000BCEEC00A10EE100A85B228E09FED440A23
:1048F00028EE000ABCEEC00A10EE100A84B29FED4A
:10490000410A28EE000ABCEEC00A10EE100A85B279
:1049100015E09FED3D0A28EE000ABCEEC00A10EE3D
:10492000100A84B29FED390A28EE000ABCEEC00AD4
:1049300010EE100A85B202E04FF0FF3096E700BF9C
:1049400020128DF80800E0B28DF8090028128DF8C9
:104950000A00E8B28DF80B0006F00100A0B102AA2F
:1049600002214FF4EA7001F009FE10B14FF0FF3060
:104970007CE70DF10A0202214FF4927001F0FEFD76
:1049800010B14FF0FF3071E706F00200A0B102AAAB
:1049900002214FF4EC7001F0F1FD10B14FF0FF3047
:1049A00064E70DF10A0202214FF4947001F0E6FD74
:1049B00010B14FF0FF3059E706F00400A0B102AA91
:1049C00002214FF4EE7001F0D9FD10B14FF0FF302D
:1049D0004CE70DF10A0202214FF4967001F0CEFD72
:1049E00010B14FF0FF3041E700203FE7000048439F
:1049F0000000804600004046000000460000C04520
:104A00000000804500004045000000450000C04413
:104A100038B50446052094FBF0F085B228128DF8D5
:104A20000000E8B28DF801006A4602214FF4EF70F1
:104A300001F0A4FD38BD38B50446052094FBF0F024
:104A400085B228128DF80000E8B28DF801006A46A0
:104A500002214FF4ED7001F091FD38BD82B0CDE937
:104A6000000121F0004001909DED000B02B051ECDF
:104A7000100B704700BF054A128802F04002002A5E
:104A8000F9D0C2B2014B1B1D1A8070470044004090
:104A90007CB505462E494968087801AB04220D21F2
:104AA000FCF766FB08B107207CBD9DF80700C0F34A
:104AB00001109DF8041001F0E00140EAE1008DF8DA
:104AC00000009DF80700C0F381009DF8051001F07B
:104AD000E00140EAE1008DF801009DF8070000F0D8
:104AE00003009DF8061001F0E00140EAE1008DF8B6
:104AF0000200002427E01DF8040030B99FED150ADC
:104B000005EB840080ED000A1BE09FED130A05EB26
:104B1000840080ED000A0BE005EB840090ED000AB4
:104B2000DFED0E0A20EE200A05EB840080ED000A7E
:104B30001DF80400401EC0B20DF804000028EBD19F
:104B400000BF601CC4B2032CD5DB0020ACE7000022
:104B500050000020000000007B14AE3E1D5A843F30
:104B60002DE9F04F87B005460C46914601208DF89F
:104B7000100000208DF81100FE4A1268917CFD4A59
:104B80005268107804AB0222FCF798FB20B14FF07A
:104B9000FF3007B0BDE8F08FC820FFF70DF9002007
:104BA0008DF81000F34A1268D17BF24A52681078EF
:104BB00004AB0122FCF782FB10B14FF0FF30E8E7B5
:104BC000EC4A12685179EB4A5268107804AB012222
:104BD000FCF774FB10B14FF0FF30DAE7E54A1268DA
:104BE000917CE44A5268107804AB0122FCF766FB22
:104BF00010B14FF0FF30CCE7DE4A1268D17DDD4ABC
:104C00005268107804AB0122FCF758FB10B14FF04A
:104C1000FF30BEE7D74A12681179D64A5268107839
:104C200004AB0122FCF74AFB10B14FF0FF30B0E7B4
:104C30000C208DF81000CF4A12681179CD4A5268C5
:104C4000107804AB0122FCF739FB10B14FF0FF30B4
:104C50009FE70F20FFF7B0F8C648806A407A8DF8CA
:104C60001000C44A12689178C24A5268107804ABA6
:104C70000122FCF723FB10B14FF0FF3089E7BD485C
:104C8000806A007A8DF81000BA4A12685178B94AE1
:104C90005268107804AB0122FCF710FB10B14FF002
:104CA000FF3076E7B9F1000F07D0B248806A807A0A
:104CB00040F0E0008DF8100004E0AE48806A807A91
:104CC0008DF81000AB4A12689179AA4A52681078A0
:104CD00004AB0122FCF7F2FA10B14FF0FF3058E7B5
:104CE000B9F1000F07D0A348806AC07A40F0E00015
:104CF0008DF8100003E0A048C07A8DF810009D4A9E
:104D00001268D1799B4A5268107804AB0122FCF7F3
:104D1000D5FA10B14FF0FF303BE7B9F1000F02D0E8
:104D2000C820FFF749F840208DF81000914A12681A
:104D30001179904A5268107804AB0122FCF7BEFA50
:104D400010B14FF0FF3024E778208DF81000894A29
:104D500012685179874A5268107804AB0122FCF737
:104D6000ADFA10B14FF0FF3013E783498889FFF7A0
:104D700023F800208DF810007E4A126851797D4A90
:104D80005268107804AB0122FCF798FA10B14FF08A
:104D9000FF30FEE6774A1268917A764A52681078B8
:104DA00004AB0222FCF7E4F910B14FF0FF30F0E65B
:104DB0009DF811009DF8101040EA012B0C209BFB80
:104DC000F0F0C6B20020A86068602860A060606053
:104DD0002060824665E0674A1268D17A654A526867
:104DE000107804AB0C22FCF7C3F910B14FF0FF3080
:104DF000CFE69DF811009DF8101040EA012000B2A6
:104E0000ADF808009DF813009DF8121040EA01204B
:104E100000B2ADF80A009DF815009DF8141040EAA4
:104E2000012000B2ADF80C00BDF90810206808445C
:104E30002060BDF90A10606808446060BDF90C107C
:104E4000A0680844A0609DF817009DF8161040EA7D
:104E5000012000B2ADF800009DF819009DF818106F
:104E600040EA012000B2ADF802009DF81B009DF859
:104E70001A1040EA012000B2ADF80400BDF900109C
:104E8000286808442860BDF9021068680844686012
:104E9000BDF90410A8680844A8600AF1010000F0F8
:104EA000FF0AB24597DB3448D0F800C02868C11724
:104EB000090441EA10410704624600233846FBF723
:104EC0007FF932460023CDE90201FBF779F928602A
:104ED0002948D0F800C06868C117090441EA1041A8
:104EE0000704624600233846FBF76AF9324600237E
:104EF000CDE90201FBF764F968601F48D0F800C0F3
:104F0000A868C117090441EA10410704624600235A
:104F10003846FBF755F932460023CDE90201FBF78D
:104F20004FF9A8601448D0F804C02168C8170004DD
:104F300040EA11480F046246002338464146FBF719
:104F40003FF932460023CDE90201FBF739F9206031
:104F50000948D0F804C06068C117090441EA10414B
:104F60000704624600233846FBF72AF9324600233D
:104F700004E000005000002044870008CDE9020151
:104F8000FBF71EF960601148D0F804C0A068C11793
:104F9000090441EA10410704624600233846FBF742
:104FA0000FF932460023CDE90201FBF709F9A060B1
:104FB000A068002804DDA068A0F58030A06003E0B0
:104FC000A06800F58030A0600020E2E5448700087A
:104FD000F0B52DED048B81B006460F4600253E4905
:104FE000496808786B4603220D21FCF7C1F820B10F
:104FF000072001B0BDEC048BF0BD9DF8000000F06F
:105000001F008DF800009DF8010000F01F008DF8D2
:1050100001009DF8020000F01F008DF8020000243E
:1050200055E056F8241057F82420881A002801DB90
:10503000014600E0414200EE101AB8EEC00ADFED72
:10504000270A80EE208A1DF8040068B3244890EDFA
:10505000000AB8EE400ADFED230A80EE801AF0EE77
:10506000418A05E09FED200A28EE800AF0EE408A92
:105070001DF80400401EC0B20DF804000028F1D154
:1050800088EE280AF7EE000A30EE609AB0EEC90A00
:105090001348D0ED060AB4EEE00AF1EE10FA15DD81
:1050A0000120A040054311E00D4890ED040AB4EE44
:1050B000C80AF1EE10FA06DC90ED050AB4EEC80A53
:1050C000F1EE10FA02D20120A0400543641C032C2B
:1050D000A7DB28468DE70000500000200000804735
:1050E0004487000800B04C4554E3853F10B50446A2
:1050F000204600F00FF80346E01C00F00BF843EAEE
:10510000C00083B2A01D00F005F843EA801083B20E
:10511000184610BD014691F90020002A01DD00204B
:105120001EE091F90020002A01DA042018E091F92C
:105130000120002A01DD012012E091F90120002A5E
:1051400001DA05200CE091F90220002A01DD02209D
:1051500006E091F90220002A01DA062000E007208B
:105160007047000010B558480068052817D1012184
:105170005648FDF78FF856A0FDF702FC4021554830
:10518000FBF781FD4FF400515348FBF77EFD1021E2
:105190005148FBF778FD80215048FBF776FD4A48DF
:1051A0000068072817D101214848FDF773F84CA083
:1051B000FDF7E6FB40214748FBF767FD4FF4005140
:1051C0004548FBF760FD10214348FBF75EFD802159
:1051D0004248FBF758FD3C480068082817D10121D8
:1051E0003A48FDF757F83FA0FDF7CAFB4021394880
:1051F000FBF74BFD4FF400513748FBF746FD1021FC
:105200003548FBF740FD80213448FBF73CFD2E4834
:105210000068062817D101212C48FDF73BF832A081
:10522000FDF7AEFB40212B48FBF72DFD4FF400515D
:105230002948FBF728FD10212748FBF726FD802190
:105240002648FBF722FD20480068102817D10121CD
:105250001E48FDF71FF825A0FDF792FB40211D48D1
:10526000FBF713FD4FF400511B48FBF70EFD102117
:105270001948FBF70AFD80211848FBF706FD124884
:1052800000680E2817D101211048FDF703F819A076
:10529000FDF776FB40210F48FBF7F5FC4FF400517A
:1052A0000D48FBF7F0FC10210B48FBF7ECFC8021CC
:1052B0000A48FBF7E8FC044800680C2803D10021E9
:1052C0000248FCF7E7FF10BD300000200008004056
:1052D00035000000000C02400010024000000240B7
:1052E000370000003800000036000000D7F3D0FD82
:1052F00000000000D3D2D0FD00000000A820FEF77F
:105300003DFDFBF779FE00214FF6FF70FDF76CF9CC
:10531000FBF722FCFBF71AFBFCF7C4F8FCF7E6FBF3
:10532000FCF792FCFCF7E8FFFBF7C8FE02E012A0D6
:10533000FDF726FB00F07EF90028F8D14FF47A70D3
:10534000FEF73AFD16E0FCF75BFC104803681048D6
:1053500002681048016810480068104C94ED001A6B
:105360000F4CD4ED000A0F4C94ED000AFCF790FDB1
:10537000FFF7F8FEE7E70000444D50B3F5CABCBBA9
:10538000AFCAA7B0DCA3A10A0000000030000020D3
:105390002C00002028000020200000200C0000200D
:1053A00008000020040000207047000070B504468B
:1053B000002624F00104184890F8240008B10020C9
:1053C00070BD1548807A10B94FF0FF30F8E71248E9
:1053D000057C807A2040104908740846007CA04271
:1053E00002D04FF0FF3600E0002614B90A48007DD5
:1053F00018B1012001F00AFA02E0002001F006FADB
:105400003CB100F0A7FC20B1034805744FF0FF3019
:10541000D6E73046D4E700005000002070B52DEDEF
:105420000C8B8EB004460D461646B7EE000AF0EE21
:10543000409A9FED7C0AB0EE408A9FED7A0AF0EE2A
:10544000408A9FED780AB0EE409A07A808A90DABF4
:1054500003AACDE9001009A90BA8FEF797FE20B119
:1054600001200EB0BDEC0C8B70BDBDF8200000F427
:10547000807000287ED09DED030AB8EEC00ADFEDF3
:105480006A0A80EE201AF0EE419A9DED040AB8EE09
:10549000C00ADFED650A80EE201AB0EE418A9DED6C
:1054A000050AB8EEC00ADFED600A80EE201AF0EEC1
:1054B000418A9DED060AB8EEC00ADFED5B0A80EE78
:1054C000201AB0EE419AB8EE000A28EE000A20EE4B
:1054D000090AF0EE000A69EEA00A00EEA80A10EE32
:1054E000101A0846FBF744F841EC1C0BB0EE4C0ACE
:1054F000F0EE6C0AFDF780FAB0EE40BAF0EE60BA5A
:105500009FED4A0B53EC102B51EC1B0BFAF74FFF9E
:1055100041EC1A0BFBF73FF82060B8EE000A28EECA
:10552000000A20EE080AF0EE000A68EEA00A00EE7B
:10553000E80AF7EE000A30EE200A10EE101A0846CC
:10554000FBF716F841EC1C0BB0EE000A28EE800ABF
:1055500020EE090AF0EE000A69EEA00A00EE880AC1
:1055600010EE101A0846FBF703F841EC1D0BB0EEE5
:105570004C1A00E052E0F0EE6C1AB0EE4D0AF0EE7C
:105580006D0AFDF755FDB0EE40BAF0EE60BA9FED42
:10559000270B53EC102B51EC1B0BFAF708FF41ECD7
:1055A0001A0BFAF7F8FF286029EEA90A08EE080A94
:1055B00008EEE80A09EE490A10EE101A0846FAF752
:1055C000D7FF41EC1C0B28EE280A09EE890AF0EE01
:1055D000000A20EE200A10EE101A0846FAF7C8FF5B
:1055E00041EC1D0BB0EE4C1AF0EE6C1AB0EE4D0A09
:1055F000F0EE6D0AFDF71CFDB0EE40BAF0EE60BAB9
:105600009FED0A0B53EC102B51EC1B0BFAF7CFFE5E
:1056100041EC1A0BFAF7BFFF306001E0022020E7EF
:1056200000201EE7000000000000804E66666666EF
:1056300066A64C4070B50024FBF7A2FB00F026F9EB
:1056400000283DD1782000F031FFC4B20CB1012018
:1056500070BD7820FFF7AAFEC4B20CB10220F7E7B4
:10566000322000F0D5FEC4B20CB10320F0E7FEF703
:1056700081FDC4B20CB10420EAE71248FFF736FD01
:105680000546FEF7D1FFC4B20CB10520E0E740F2B9
:105690007310FEF717FCC4B20CB10620D8E7322015
:1056A000FEF7F2FEC4B20CB10720D1E701F050F8CA
:1056B0000446012000F0A8FDC4B20CB10920C7E7E0
:1056C0000020C5E77C00002001461148407A30B137
:1056D000012807D0022808D003280CD108E00220B6
:1056E00008700BE00420087008E00820087005E04E
:1056F0001020087002E04FF0FF30704700BF0448F0
:10570000C07C18B108784006000E08700020F4E74D
:105710005000002001461348407A30B1012808D0DB
:1057200002280AD0032810D10BE04FF480400880F3
:105730000EE041F69C7008800AE04FF4805008802B
:1057400006E04FF40060088002E04FF0FF30704741
:1057500000BF0448C07C10B10888401008800020B9
:10576000F5E700005000002001460248007C087068
:10577000002070475000002001460F48007A30B1E9
:10578000012807D0022809D003280FD10AE0FA2007
:1057900008800EE04FF4FA7008800AE04FF47A7047
:1057A000088006E04FF4FA60088002E000200880DC
:1057B00000BF00BF00207047500000200146124883
:1057C000007A30B1012809D002280CD0032814D166
:1057D0000EE09FED0E0A81ED000A11E09FED0C0A2C
:1057E00081ED000A0CE09FED0B0A81ED000A07E055
:1057F0009FED090A81ED000A02E04FF0FF3070478B
:1058000000BF0020FBE70000500000200000034321
:10581000000083423333034233338341014612484D
:10582000C07A082817D2DFE800F01704070A0D1025
:105830001318BC20088013E06220088010E02A20A2
:1058400008800DE0142008800AE00A20088007E0A4
:105850000520088004E000BF00BF0020088000BFD2
:1058600000BF00207047000050000020014606489D
:1058700090F8240010B14FF0FF3070470248C08903
:1058800008800020F9E70000500000201CB58020AF
:105890008DF80000654A1268917C644A526810785D
:1058A0006B460122FBF70AFD10B14FF0FF301CBD23
:1058B0006420FEF781FA00208DF800005B4A126830
:1058C000917C5A4A526810786B460122FBF7F6FC2D
:1058D00010B14FF0FF30EAE7544A1268917D534A05
:1058E000526810786B460622FBF742FC10B14FF06D
:1058F000FF30DCE79DF80500C007400F9DF803105E
:1059000001F0010140EA41009DF8011001F00101A0
:1059100040EA010494B1012C03D101214348C17430
:1059200031E0022C03D100214048C1742BE0214614
:105930003FA0FDF725F84FF0FF30B8E73B4A12686B
:10594000D1783A4A526810786B460122FBF710FC76
:1059500010B14FF0FF30AAE79DF8000000F00F04EF
:105960002CB93D48FDF70CF84FF0FF309FE7042CB1
:1059700006D13AA0FDF704F801212C48C17402E0D9
:1059800000212A48C174FF2128488172FF2027493D
:105990000872FF2125484172C1724FF6FF71C18123
:1059A000FF21017481740121017380F8221000210C
:1059B00080F82310417501751630016041608160E7
:1059C000163880F8241080F82510C1844FF4FA604E
:1059D00000F062FC10B14FF0FF3068E7022000F0E9
:1059E0002BFB10B14FF0FF3061E72A2000F0CEFC16
:1059F00010B14FF0FF305AE7322000F009FD10B12E
:105A00004FF0FF3053E70020FFF7D0FC10B14FF00C
:105A1000FF304CE7002000F051FB10B14FF0FF3099
:105A200045E7002000F042FD002040E75000002044
:105A3000556E737570706F7274656420736F6674E1
:105A4000776172652070726F647563742072657619
:105A50002025642E0A0000005894000848616C66F6
:105A60002073656E736974697669747920706172E8
:105A70007420666F756E642E0A0000002DE9F043F5
:105A800085B005460E4690469946294890F825006F
:105A900020B14FF0FF3005B0BDE8F08316B94FF0EC
:105AA000FF30F8E7002423E0281B102801DD102038
:105AB00000E0281B87B232193946204600F05EFD0F
:105AC00010B14FF0FF30E6E701AA3946204600F05A
:105AD00001F910B14FF0FF30DDE730193A4601A966
